:020000040800F2
:10000000005000206500000880B483B000AF114BA1
:100010001B68104A43F0100313600F4B1B680E4A15
:1000200023F4700313600C4B1B680B4A43F400135A
:1000300013600A4B1B68094A83F4005313600023C2
:100040007B6002E07B6801337B607B68044A9342FB
:10005000F8DDEEE718100240041001400C100140DA
:100060009F86010080B582B000AF114B7B60114BC1
:100070003B6007E07A68131D7B603B68191D39609F
:1000800012681A603B680C4A9342F3D30B4B3B60F7
:1000900004E03B681A1D3A6000221A603B68084A77
:1000A0009342F6D3FFF7B0FF00BF0837BD4680BDCF
:1000B000C400000800000020000000200000002014
:0400C000000000201C
:04000005080000658A
:00000001FF
